:020000040800F2
:1000000000000120DD020008E5020008E902000806
:100010005D03000861030008A90300080000000058
:10002000000000000000000000000000F1030008D4
:10003000F503000800000000F9030008AD080008FF
:100040000D0400080D0400080D0400080D0400084C
:100050000D0400080D0400080D0400080D0400083C
:100060000D0400080D0400080D0400080D0400082C
:100070000D0400080D0400080D0400080D0400081C
:100080000D0400080D0400080D0400080D0400080C
:100090000D0400080D0400080D0400080D040008FC
:1000A0000D0400080D0400080D0400080D040008EC
:1000B0000D0400080D0400080D0400080D040008DC
:1000C0000D0400080D0400080D0400080D040008CC
:1000D0000D0400080D0400080D0400080D040008BC
:1000E0000D0400080D0400080D0400080D040008AC
:1000F0000D0400080D0400080D0400080D0400089C
:100100000D0400080D0400080D0400080D0400088B
:100110000D0400080D0400080D0400080D0400087B
:100120000D0400080D0400080D0400080D0400086B
:100130000D0400080D0400080D0400080D0400085B
:100140000D0400080D0400080D0400080D0400084B
:100150000D0400080D0400080D0400080D0400083B
:100160000D0400080D0400080D0400080D0400082B
:100170000D0400080D0400080D0400080000000034
:100180000D0400080D0400080D0400080D0400080B
:100190000D0400080D0400080D0400080D040008FB
:1001A0000D0400080D0400080D04000800B583B01C
:1001B00000F012FA384B394A1360394A1360394952
:1001C0000CE00A684B6801F10C04886803E01168D0
:1001D0001960043304329842F9D82146324B9942CF
:1001E000EFD32E4B1A68314B9A4204D12C4B1A682C
:1001F0002F4B9A4200D0FEE7274B2E4A13602E4A1F
:1002000013602E4B0AE0194651F8082B5B6802E098
:100210000020106004329A42FAD30B46284A9342D7
:10022000F1D3244B1B6813B9234B1B6803B1FEE7C2
:1002300000F0D6F9694601A800F078F9214C224B6C
:100240001C1BA410002504E01E4B53F825309847D2
:100250000135AC42F8DC1D4C1D4B1C1BA4100025C5
:1002600004E01A4B53F8253098470135AC42F8DCCE
:100270000099019800F01EFB0546164C164B1C1BFE
:10028000A41004E0013C134B53F824309847002C91
:10029000F8DC284600F026F9BABADECA00000020D1
:1002A000F0010020100400082804000878563412D9
:1002B00032547698F40100209002002028040008AF
:1002C000380400083804000838040008380400081E
:1002D00038040008380400083804000808B5FFF79F
:1002E00065FF00BF00BEFEE71EF0040F0CBFEFF37A
:1002F0000880EFF309807146414A10472DE9F0412B
:1003000082B004468846134B5E6B9F6B9D6A1B6BE5
:1003100013F0020F0DD00F4BDB6A002B09DA4BF6FE
:10032000AB6100F0D9F920B14FF00042094BDA621D
:100330000CE0094800F002F9CDF800803B46324657
:100340002946204600F050F900BEFEE702B0BDE8A5
:10035000F08100BF00ED00E0A834000800BEFEE719
:100360001EF0040F0CBFEFF30880EFF30980714615
:10037000244A10472DE9F04182B004468846084BD4
:100380005E6B9F6B9D6A074800F0D8F8CDF800803F
:100390003B4632462946204600F026F900BEFEE7DD
:1003A00000ED00E0B83400081EF0040F0CBFEFF3BE
:1003B0000880EFF309807146134A10472DE9F04198
:1003C00082B004468846084B5E6B9F6B9D6A074867
:1003D00000F0B4F8CDF800803B463246294620466E
:1003E00000F002F900BEFEE700ED00E0C4340008B2
:1003F00000BEFEE700BEFEE700BEFEE7704700005D
:10040000FD02000875030008BD03000800BEFEE7FA
:100410003037000800000020F401002030370008C9
:100420000000001000000010F401002094020020E1
:080430000000001000000010A4
:1004400070B400233AE001229A400C68A24334D1F0
:1004500004685D000322AA40D24314400460066889
:100460000C79AC40344304600C79013CE4B2012CBB
:1004700015D884682240826084684A79AA40224361
:10048000826046689AB20124944026EA04044460DB
:1004900046688C7904FA02F292B232434260C46830
:1004A0009AB256000322B24024EA0202C260C66831
:1004B000CC7904FA05F23243C26001330F2BC2D962
:1004C00070BC70474183704721B1054B1A6B1043D4
:1004D00018637047024A136B23EA000010637047E9
:1004E00000380240FEE700BF08B50D4B1B6813B98A
:1004F0000C4A0B4B1A600A4B1A68C31C23F0030307
:10050000134409498B4206D900F0F6F90C23036025
:100510004FF0FF3008BD02490B60104608BD00BF18
:10052000F80100209402002000FC00200123036059
:10053000014B0B60704700BF040000200FB400B5F2
:1005400083B004AB53F8042B01938021064800F0DC
:100550007DFE002803DD0146034800F039F803B0B2
:100560005DF804EB04B07047000200202DE9F04371
:1005700085B004460F46435613BB04252846214642
:10058000ABBE04461FE03546102E28BF10250023C1
:1005900006E014F9011B04AA1A4402F8101C0133E6
:1005A000AB42F6D304AA1344002203F8102CE94608
:1005B0004FF0040840464946ABBE8046761B00E03B
:1005C0000E46002EDFD1384605B0BDE8F08300BFEF
:1005D00008B5FFF7CBFF08BD08B500F0C7F808BDA8
:1005E00008B500F0E5F808BDF8B504460D46174615
:1005F0001E462648FFF7A2FF21682548FFF79EFF09
:1006000061682448FFF79AFFA1682348FFF796FF27
:10061000E1682248FFF792FF21692148FFF78EFF2A
:1006200061692048FFF78AFFA1691F48FFF786FF2D
:10063000E1691E48FFF782FF1D48FFF77FFF29464B
:100640001C48FFF77BFF1C4CE16A1C48FFF776FF54
:10065000216B1B48FFF772FFE16B1A48FFF76EFF33
:1006600015F0800F03D039461748FFF767FF15F4E0
:10067000004F03D031461548FFF760FF1448FFF7DD
:100680005DFF06991348FFF759FFF8BD8C3300084A
:100690009C330008AC330008BC330008CC3300089E
:1006A000DC330008EC330008FC3300080C3400088D
:1006B0001C3400082834000800ED00E0383400083D
:1006C00048340008583400086834000878340008BA
:1006D000883400089034000883691A888A4207D158
:1006E0000268033A012A05D802338361012070476A
:1006F0000020704700207047184B1A6C42F080525F
:100700001A6417490A6822F440420A609A689A609B
:100710009A689A609A6842F480529A60114A5A60C4
:100720001A6842F080721A600C4B1B6813F0007F4D
:10073000FAD040F202620C4B1A60A3F580639A680B
:1007400022F003029A609A6842F002029A60034B18
:100750009B6803F00C03082BF9D170470038024066
:100760000070004008360209003C024008B50D4BFD
:100770001A6842F001021A60002199601A6822F09A
:10078000847222F480321A60074A5A601A6822F48E
:1007900080221A60D960FFF7AFFF4FF00062034B71
:1007A0009A6008BD003802401030002400ED00E0DF
:1007B000234B9B6803F00C03042B07D0082B09D0B4
:1007C000002B2DD11F4A204B1A602CE01F4A1E4BD4
:1007D0001A6028E01A4B5A685B6803F03F0312F472
:1007E000800F09D0194AB2FBF3F2154B5B68C3F3D3
:1007F000881303FB02F208E0124AB2FBF3F3104A3B
:100800005168C1F3881101FB03F20D4B5B68C3F320
:10081000014301335B00B2FBF3F30B4A136002E0C8
:10082000084A094B1A60064B9B68C3F30313084A36
:10083000D35CDAB204490B68D3400B60704700BF49
:10084000003802400024F4001C00002000127A004E
:100850000C0000200C4B1B680C4AA2FB03239B09D5
:10086000013BB3F1807F0AD2094A5360F021094B62
:1008700083F82310002393600721116000E0012317
:1008800003B1FEE7704700BF1C000020D34D62108B
:1008900010E000E000ED00E0034B1B681BB1024AD2
:1008A0001368013B136070478002002008B5FFF712
:1008B000F3FF08BD30B583B0FFF7CCFF0121022064
:1008C000FFF702FE8025009501238DF804300022F9
:1008D0008DF806208DF8073002238DF80530054C81
:1008E00069462046FFF7ACFD29462046FFF7EAFDA2
:1008F000FEE700BF00040240014B1868704700BFCC
:10090000800000202DE9F04788B0002B149F129939
:10091000109DDDF84CA01E4627F02007BBBF03F159
:1009200000431E4600232D23462F14460B7003D090
:10093000452F03D1013501E0032300E0022307AA7C
:10094000049206AA03928DE828042246334600F05A
:100950001BFD472F804602D1119BDB0728D5462F70
:1009600008EB050911D198F80030302B0AD100228C
:1009700000232046314602F099FC18B9C5F1010563
:10098000CAF80050DAF800309944002200232046CB
:10099000314602F08BFC08B9302202E0CDF81C9001
:1009A00006E0079B994503D9591C07911A70F8E78F
:1009B000079B159AC8EB03034046136008B0BDE8D7
:1009C000F08773B503460029B8BF494203F8022BEC
:1009D000B4BF2D222B220929427019DD0DF1070227
:1009E00016460A2591FBF5F405FB14113031092C4C
:1009F00002F8011D2146F5DC3031541E02F8011CBD
:100A0000B4421A460AD214F8012B03F8012BF7E777
:100A100030241A46214402F8024B5970101A02B0D1
:100A200070BD00002DE9F04F91B00C46DDF86880F4
:100A300016461F46054601F043FA03680993184617
:100A400000F0D0FB00230E93D8F800300A90073353
:100A500023F0070303F1080294F81890D4F800B0CB
:100A6000C8F80020D3E90023C4E91223D4F84CA02D
:100A7000D4F848802AF000430B934FF0FF32A74B85
:100A80000B99404602F044FCA0B94FF0FF32A34B53
:100A90000B99404602F01EFC60B90022002340463C
:100AA000514602F00DFC10B12D2384F843309C4BCD
:100AB0009C4A0AE0424653464046514602F028FC12
:100AC000002800F09281984B984AB9F1470F8CBFEB
:100AD00090469846032323612BF0040323604FF0D4
:100AE000000A3DE0B9F1670F00F08A81B9F1470FC4
:100AF00000F08681236000210DF1330201936368C9
:100B0000059002920093424653460691CDF810900C
:100B1000CDF80CE02846FFF7F5FE09F0DF03472B80
:100B2000804600F08481B9F1650F0D9900F28D8146
:100B300001394A4604F150000D91FFF742FF0E9A29
:100B40008318012A8246236100F37C812268D10741
:100B500000F178819DF8333013B12D2384F84330B0
:100B6000009733460FAA2146284600F09FF901302E
:100B700002D14FF0FF3096E123685A0501D4236972
:100B800065E0B9F1650F40F2D58000220023D4E979
:100B9000120102F08BFB78B30123654A31462846E7
:100BA000B8470130E5D00E9B0D9A9A420BDB2368C3
:100BB000D80708D423689B0740F111814FF0000843
:100BC00004F1190906E10A9B099A31462846B847FB
:100BD0000130CED04FF0000804F11A090E9B013B02
:100BE0009845E7DA01234A4631462846B84701309E
:100BF000BFD008F10108F1E70D9B002B29DC012390
:100C00004B4A31462846B8470130B2D00D9B23B934
:100C10000E9B13B92368D907CCD50A9B099A314694
:100C20002846B8470130A4D04FF0000904F11A0A51
:100C30000D9B5B42994509DA01235246314628460D
:100C4000B847013095D009F10109F1E70E9B424602
:100C5000A7E00E9AA36D9A42A8BF1A46002A9146B1
:100C600006DC4FF0000A29EAE97904F11A0B11E0D9
:100C70001346314642462846B8470130F1D178E75D
:100C800001235A4631462846B84701303FF471AF38
:100C90000AF1010AA36DC9EB03029245F0DB08EBF0
:100CA00003090D9A0E9B9A420FDB2368DA070CD4D6
:100CB0000E9B0D9A9844C9EB08089B1A9845A8BF4B
:100CC0009846B8F1000F08DC0FE00A9B099A3146FC
:100CD0002846B8470130EBD14BE743464A463146F8
:100CE0002846B84701303FF444AF4FF0000928EAE6
:100CF000E87804F11A0A09E00123524631462846F1
:100D0000B84701303FF435AF09F101090D9A0E9B48
:100D10009B1AC8EB03039945EEDB4BE7FFFFEF7F20
:100D2000D4340008D8340008DC340008E03400086B
:100D3000E43400080E9A012A01DCDB0738D50123D0
:100D4000424631462846B84701303FF412AF0A9B6D
:100D5000099A31462846B84701303FF40AAF0022CD
:100D60000023D4E9120102F0A1FA20B14FF00008EB
:100D700004F11A090EE00E9B08F10102013B19E093
:100D800001234A4631462846B84701303FF4F1AEC8
:100D900008F101080E9B013B9845F1DB534604F135
:100DA000500231462846B84701307FF403AFE0E6F1
:100DB0000123424631462846B8470130EED1D8E6F5
:100DC00001234A4631462846B84701303FF4D1AEA8
:100DD00008F10108E3680F9A9B1A9845F0DBE06878
:100DE0000F9B9842B8BF18465DE06268531C0EA87E
:100DF0004BF480630DF1340E7FF474AE062201E0F3
:100E000012B90122626075E6002106910DF13301ED
:100E10008DE80C00236005904246CDF81090CDF887
:100E20000CE0029153462846FFF76CFD80460D9B6F
:100E3000D81C02DB626893421DDDA9F102095FFA4A
:100E400089F970E60133236184E6B9F1660F14D1A4
:100E50000029636807DD216113B92268D2071DD517
:100E600001330B4419E013B92268D00701D50233CE
:100E700013E0012311E04FF067090D9B0E9A934296
:100E800005DB22682361D10708D5013305E0002B7B
:100E9000D4BFC3F102030123134423610D9BA36557
:100EA0004FF0000A56E611B0BDE8F08F2DE9F0478B
:100EB00091461F460A698B68DDF820809342B8BFCF
:100EC0001346C9F8003091F8432006460C4612B18B
:100ED0000133C9F800302368990642BFD9F80030C1
:100EE0000233C9F80030256815F0060510D104F169
:100EF000190A07E00123524639463046C0470130FF
:100F00001AD00135E368D9F800209B1A9D42F1DB25
:100F100094F843302268003318BF012392060FD59E
:100F2000E1185A1C302081F84300224494F84510FF
:100F300082F84310023303E04FF0FF30BDE8F08742
:100F400004F1430239463046C0470130F4D02268EC
:100F5000D9F80050E36802F00602042A08BF5D1BBE
:100F60002269A3680CBF25EAE57500259342C4BF3A
:100F70009B1AED184FF000091A344D4509D0012392
:100F8000224639463046C0470130D5D009F1010923
:100F9000F3E70020BDE8F0872DE9F04317460A7E0D
:100FA00085B06E2A984606460C460C9B01F1430E0E
:100FB00000F0AE8011D8632A22D009D8002A00F0B0
:100FC000BB80582A40F0CA8081F84520834955E00B
:100FD000642A1ED0692A1CD0C0E0732A00F0B080B9
:100FE00009D86F2A2ED0702A40F0B8800A6842F0E3
:100FF00020020A603EE0752A24D0782A3AD0ADE07B
:101000001A6801F14205111D1960136884F8423015
:10101000A8E021681A6811F0800F02D0111D196034
:1010200008E011F0400F02F10401196002D0B2F99A
:10103000003000E01368002B3CDA2D225B4284F87C
:10104000432037E021681A6811F0800F02D0111D8B
:10105000196007E011F0400F02F10401196001D09E
:10106000138800E01368227E5C496F2A14BF0A22AD
:1010700008221BE078225A4984F845202268186823
:1010800012F0800F00F104051D6003D1550601D553
:10109000038800E00368D00744BF42F020022260CA
:1010A0001BB9226822F0200222601022002084F85E
:1010B000430001E049490A226568A560002D08DB6C
:1010C000206820F0040020602BB9002D7DD17546EA
:1010D0000CE0002B79D07546B3FBF2F002FB103325
:1010E000CB5C05F8013D03460028F5D1082A0BD159
:1010F0002368DA0708D5236962689A42DEBF302385
:1011000005F8013C05F1FF35C5EB0E0323612EE028
:1011100008681A68496910F0800F03D0101D186024
:10112000136808E010F0400F02F104001860136823
:1011300001D0198000E0196000232361754616E094
:101140001A68111D1960156862680021284600F0B0
:10115000CFFE08B1401B6060636804E004F1420503
:1011600084F8422001232361002384F84330CDF822
:1011700000803B4603AA21463046FFF797FE013028
:1011800002D14FF0FF3026E023692A463946304627
:10119000C0470130F5D023689B0710D5002504F126
:1011A000190907E001234A4639463046C047013055
:1011B000E7D00135E368039A9B1A9D42F2DBE068B1
:1011C000039B9842B8BF184605E00B7884F842307C
:1011D00004F142058AE705B0BDE8F083E634000873
:1011E000F7340008034613F8012B002AFBD1181A24
:1011F0000138704730B5141E05469BB0184604DA16
:101200008B232B604FF0FF301DE04FF40273ADF8DD
:101210000C3014BF04F1FF332346029305934FF6BD
:10122000FF7300910491ADF80E3002461E9B694693
:10123000284601F0A3FA431CBCBF8B232B6014B1DA
:10124000009B00221A701BB030BD000007B5009350
:1012500013460A46014603480068FFF7CBFF03B078
:101260005DF804FB800000202DE9F74F03690C694D
:101270009C42804600F38380013C01F114074FEA51
:10128000840E00F1140657F8245006EB0E03019368
:10129000013556F82430B3FBF5F507EB0E09002DA8
:1012A00039D04FF0000A3846B446D34650F8042BE4
:1012B00093B205FB03A34FEA134A9BB2C3EB0B03A4
:1012C000120CBCF800B005FB02A213FA8BF34FEA34
:1012D000124A1FFA82FBDCF80020CBEB124202EB31
:1012E00023429BB243EA024381454FEA224B4CF82A
:1012F000043BDBD256F80E306BB9019B043B9E4297
:101300001A4602D3C8F8104005E01268043B002AD0
:10131000F8D1013CF3E7404601F053F800282CDBFC
:10132000013530464FF0000E57F8041BD0F800C0CE
:101330008AB2C2EB0E03090C13FA8CF3C1EB1C4208
:1013400002EB23429BB243EA0243B9454FEA224EE5
:1013500040F8043BE8D256F8242006EB840362B937
:10136000043B9E421A4602D3C8F8104005E01268BA
:10137000043B002AF8D1013CF3E7284600E00020B6
:1013800003B0BDE8F08F00002DE9F04F456A95B03D
:101390008246219CCDE9022345B9102000F09EFD34
:1013A000CAF82400456085600560C560DAF824301D
:1013B000196859B15A684A60012393408B605046BE
:1013C00000F026FEDAF8243000221A60039BA04ABF
:1013D000002BBFBF01232360039B23F00043B8BF52
:1013E0000393DDF80C80A4BF0023236028F00043A2
:1013F0001B0D1B0593421DD1209A42F20F731360FF
:10140000029B43B9934A944BC8F31300002814BFBE
:101410001846104600E09048229B002B00F04A85B9
:10142000C37813B100F1080300E0C31C229A1360D3
:1014300000F040BDDDE90245002200232046294698
:1014400001F034FF074658B1209A01231360229B14
:10145000002B00F0228581481860013800F02ABD79
:1014600012AB019313AB009322462B46504601F07A
:1014700023F8C8F30A56049056B1C5F3130343F09A
:101480007F51204641F44011A6F2FF3611971DE02E
:10149000139B129E1E4406F23243202B0ADD029A51
:1014A00006F21240C3F1400322FA00F008FA03F3F7
:1014B000184304E0C3F12000029B03FA00F001F09E
:1014C00017FC0123A1F1F871013E11930022644B36
:1014D00001F0D0FA58A3D3E9002301F07FFC58A310
:1014E000D3E9002301F0C8FA044630460D4601F066
:1014F0000FFC55A3D3E9002301F070FC02460B4614
:101500002046294601F0B8FA04460D4601F016FFC0
:101510000022834600232046294601F0D1FE58B11F
:10152000584601F0F5FB02460B462046294601F0DD
:10153000BDFE08B90BF1FF3BBBF1160F0DD84949B1
:1015400001EBCB01DDE90223D1E9000101F0D6FE78
:1015500030B10BF1FF3B002300E00123109300E0CA
:101560001090129B9E1B731E079343BFC3F100088C
:10157000002307934FF00008BBF1000F06DB079B29
:10158000CDF82CB05B440793002705E00023CBEB9C
:101590000808CBF100070B931E9B092B27D8052BBE
:1015A000C4BF043B1E931E9BA3F10203CCBF0025C6
:1015B0000125032B20D8DFE803F0060E02040123E7
:1015C00002E0012308E000230A931F9B002B1DDD8E
:1015D0009946059321E000230A931F9B0BEB030917
:1015E00009F10103012B0593B8BF012315E0012583
:1015F00000231E930A9501E001230A934FF0FF395F
:101600000022CDF8149012231F9206E04FF001093A
:10161000CDF814904B46CDF87C90DAF824400022A7
:101620006260042101F114029A421DD862680132FD
:1016300062604900F6E700BF61436F63A787D23F4E
:10164000B3C8608B288AC63FFB799F501344D33FB1
:101650000000F07F0835000811350008E534000867
:101660000000F83F183500086168504600F09BFC08
:10167000DAF8243020601B680693059B0E2B00F2DD
:101680005D81002D00F05A81DDE90234BBF1000FCD
:10169000CDE90E3431DDA04A0BF00F0302EBC3039A
:1016A000D3E900344FEA2B15E806CDE908340CD510
:1016B0009A4BDDE90E01D3E9082301F0B9FC05F0EE
:1016C0000F05CDE90201032400E00224934E6DB121
:1016D000E90708D5DDE90801D6E9002301F07EFB22
:1016E000CDE9080101346D100836F0E7DDE9082383
:1016F000DDE9020101F09CFC20E0CBF1000505B31F
:10170000854B864E05F00F0203EBC203D3E900239D
:10171000DDE90E0101F062FBCDE902012D1100238C
:10172000022455B1EA0705D5D6E9002301F056FB9E
:10173000013401236D100836F3E71BB1CDE9020136
:1017400000E00224109BE3B1DDE902560022744B55
:101750002846314601F0B4FD98B1059B8BB1B9F133
:10176000000F40F3E7800BF1FF330893314600226E
:101770006C4B284601F032FB0134CDE902014E46A4
:1017800002E0059ECDF820B0204601F0C1FADDE967
:10179000022301F023FB644B002201F06DF9A1F15B
:1017A000507304460C931D46D6B900225F4BDDE909
:1017B000020101F05FF922460C9BCDE9020101F024
:1017C0009DFD002840F040820C99224601F1004323
:1017D000DDE9020101F074FD002840F02C82A9E04F
:1017E0000A9A4D4B711E002A49D003EBC103D3E97D
:1017F000002300204E4901F01BFC22462B4601F03D
:1018000039F9CDE90C01069CDDE9020101F096FDF4
:10181000054601F07DFA02460B46DDE9020101F0C2
:1018200029F9303504F8015BDDE90C23CDE902012B
:1018300001F046FD002840F02083DDE9022300206E
:10184000374901F017F9DDE90C2301F039FD0028D3
:1018500040F0D280069BE31AB3426BDA0022314B90
:10186000DDE90C0101F0BAFA0022CDE90C012D4BA3
:10187000DDE9020101F0B2FACDE90201C4E703EBB0
:10188000C10122462B46D1E9000101F0A7FA069BCF
:10189000CDE90C019C191D46DDE9020101F04EFD68
:1018A000064601F035FA303602460B46DDE9020104
:1018B00001F0E0F805F8016BAC42CDE902014FF010
:1018C000000223D11A4BDDE90C0101F0D5F80246E4
:1018D0000B46DDE9020101F011FD002840F08C808B
:1018E000DDE90C230020124901F0C4F802460B4642
:1018F000DDE9020101F0E4FCE0B114F8013C302B19
:1019000004F1FF3240F0B9821446F6E7054B01F0CE
:1019100065FACDE90201BFE718350008E035000897
:101920000000F03F0000244000001C400000144074
:101930000000E03FDDE90E34CDE90234139B002BBB
:101940007DDBBBF10E0F7ADCAB4B03EBCB03D3E9B2
:1019500000671F9B002B14DA059B002B11DC40F065
:101960006C810022A54B3046394601F037FADDE99B
:10197000022301F0B9FC059D2E46002840F05F814E
:1019800065E1DDE90289069C32463B464046494610
:1019900001F04EFB01F0D2FC054601F0B9F93246E8
:1019A0003B4601F01BFA0B4602464946404601F011
:1019B00061F805F1300E069B04F801EBC3EB040E51
:1019C000059B73452ED102460B4601F055F8804623
:1019D000894602460B463046394601F071FC78B91B
:1019E00042464B463046394601F060FC002800F084
:1019F0004682EB0704D442E2DDF820B000E01C464A
:101A000014F8012C392A04F1FF3307D1069A9A42BF
:101A1000F5D1069930220BF1010B0A701A780132C8
:101A20001A702CE20022764B01F0D8F90022002334
:101A30008046894601F03AFC0028A5D01FE20A9AA8
:101A4000002A2BD01E9A012A0ADC119A12B103F245
:101A5000334302E0129BC3F136033D46444613E094
:101A6000059B5D1EAF42BFBF0B9BEA1B9B180B93F0
:101A7000059BB6BF2F467D1B0025002BABBF059BEA
:101A8000C3EB080444460023079A01211A44504638
:101A90009844079200F05BFB064602E00A9E3D4632
:101AA00044465CB1079B002B08DDA342079AA8BF00
:101AB0002346C3EB0808E41AD31A0793002F1DDD51
:101AC0000A9BABB18DB131462A46504600F0DAFB95
:101AD000049A01460646504600F042FB04990890DD
:101AE000504600F095FA089B04937A1B06D000E05C
:101AF0003A460499504600F0C5FB04900121504637
:101B000000F025FB0B9B05465BB31A460146504689
:101B100000F0B8FB1E9B012B054618DC029B83B925
:101B2000039BC3F3130373B9039B23F000473F0DDB
:101B30003F054FB1079B013308F1010807930127C7
:101B400002E0002700E0029F0B9B73B100E000273A
:101B50002B6905EB8303186900F0ACFAC0F1200093
:101B600004E01E9B012BD9DD0B9F0120079B18442D
:101B700010F01F0008D0C0F12003042B02DDC0F1DB
:101B80001C0002E006D018461C30079B034480442A
:101B900004440793B8F1000F05DD4246049950460E
:101BA00000F0BEFB0490079B002B05DD29461A467A
:101BB000504600F0B5FB0546109B1BB32946049820
:101BC00000F0FFFB00281DDA00230A22049950468A
:101BD00000F035FA0A9B04900BF1FF3B002B00F05C
:101BE0006081314600230A22504600F028FAB9F1FC
:101BF000000F06463EDC3AE01835000800001440AD
:101C000000002440059B002B2BDC1E9B022B28DDB3
:101C1000DDF81490B9F1000F11D129464B46052289
:101C2000504600F00CFA01460546049800F0C9FB46
:101C300000280CDC03E0354600E000252E461F9B03
:101C4000069C6FEA030B09E0DDF820B03546069BE1
:101C5000069A5C1C312313700BF1010B05960026CC
:101C6000F9E00A9BDDF8149023B9069CB2E01E9BB4
:101C7000022BCFDC002C05DD31462246504600F019
:101C80004FFB06469FB17168504600F08CF93269EF
:101C900002320446920006F10C010C3000F078F993
:101CA00001222146504600F03BFB059000E00596DE
:101CB000029B069F03F00103079329460498FFF750
:101CC000D3FA3146044600F13008049800F079FB5D
:101CD000059A02902946504600F08FFBC3680246E1
:101CE0003BB901460A90049800F06BFB0A9A034640
:101CF00000E00123114650460A9300F089F90A9B3F
:101D000053B91E9A42B9079A32B9B8F1390F2AD09D
:101D1000029B002B1CDC1DE0029A002A04DB1BD175
:101D20001E9ACAB9079ABAB9002B13DD0122049989
:101D3000504600F0F5FA2946049000F042FB0028D6
:101D400003DC07D118F0010F04D0B8F1390F0AD025
:101D500004F131087C1C0CE0002B07F101040BDDC1
:101D6000B8F1390F03D139233B70013756E008F140
:101D7000010887F800806EE0069B04F8018CE31AE6
:101D80004B4527463BD000230A220499504600F0D9
:101D900056F9059B04909E424FF00A024FF0000353
:101DA0003146504604D100F04AF90646059084E7D2
:101DB00000F045F9002306460A220599504600F036
:101DC0003EF9059079E700230A220499504600F075
:101DD00036F9049029460498FFF746FA00F13008D6
:101DE00004F8018B069BE31A4B45ECDB069B05963A
:101DF000B9F1010FACBF4B4401331F46002601224D
:101E00000499504600F08CFA2946049000F0D9FA63
:101E1000002803DC16D118F0010F13D03C4614F84B
:101E2000013C392B04F1FF3209D1069B934204D1C6
:101E30000BF1010B3123069A02E01446EFE7013360
:101E4000137008E03C4614F8013C302B04F1FF32DB
:101E500001D11446F7E72946504600F0D9F8059B12
:101E60006BB12EB19E4203D03146504600F0D0F8FF
:101E70000599504600F0CCF801E0DDF820B0049957
:101E8000504600F0C5F80023209A23700BF101039F
:101E90001360229B1BB11C6001E008480AE0069811
:101EA00008E0B9F1000F3FF7E0AE1E9B022B7FF771
:101EB000DCAEAFE615B0BDE8F08F00BFE43400083B
:101EC000044B1B68186A044B002808BF1846F03002
:101ED000704700BF8000002084000020024B0146B4
:101EE000186800F093BB00BF8000002000000000D5
:101EF00001F0FF01102A2BDB10F0070F08D010F8BB
:101F0000013B013A8B422DD010F0070F42B3F6D1BE
:101F1000F0B441EA012141EA014122F007047FF0D7
:101F200000070023F0E80256083C85EA010586EA2E
:101F3000010685FA47F5A3FA87F586FA47F6A5FA6A
:101F400087F68EB9EED1F0BC01F0FF0102F0070276
:101F500032B110F8013B013A83EA010313B1F8D121
:101F60000020704701387047002D06BF3546033802
:101F7000073815F0010F07D1013015F4807F02BF3B
:101F8000013015F4C03F0130F0BC0138704700BF8C
:101F900010B5431E0A44914204D011F8014B03F8D6
:101FA000014FF8E710BD70B5456A04460E463DB9CD
:101FB0001020FFF793FF6062456085600560C56093
:101FC000656AEB6843B1636ADB6853F8260078B151
:101FD000026843F8262017E021220421204600F061
:101FE000B9FA636AE860DB68002BECD1002070BDB1
:101FF000012101FA06F56A1D9200204600F0AAFAB6
:102000000028F3D04660856000230361C36070BD83
:1020100070B5446A06460D463CB91020FFF75EFFD6
:102020007062446084600460C4603DB1736A6A6831
:10203000DB6853F82210296043F8225070BD2DE967
:10204000F0410D691F4606460C4601F1140E0023AF
:10205000DEF8000081B202FB01710F0C000C02FBE4
:10206000007089B2013301EB00419D424FEA1047F5
:102070004EF8041BECDCD7B1A3689D4212DB61680B
:1020800030460131FFF78FFF2269023204F10C0163
:10209000804692000C30FFF77BFF21463046FFF769
:1020A000B7FF444604EB850301355F612561204697
:1020B000BDE8F081030C1B0413B90004102300E0F9
:1020C000002310F07F4F04BF0002083310F0704F60
:1020D00004BF0001043310F0404F04BF80000233FE
:1020E000002803DB420003D5581C70471846704790
:1020F00020207047036813F007020BD0D90722D4C1
:102100009A074BBF5B089B08036003604CBF01202C
:102110000220704799B209B91B0C102213F0FF0F6F
:1021200004BF1B0A0832190704BF1B0904329907B0
:1021300004BF9B080232D90702D45B0805D00132E4
:10214000036010467047002070472020704710B58C
:102150000C460121FFF727FF01224461026110BDF7
:102160002DE9F74F14460A6923699A42B8BF0B4616
:102170008846BCBFA0461C46D8F81070D4F8109012
:10218000D8F80830D8F8041007EB09069E42C8BFFB
:102190000131FFF708FF00F1140505EB860C2B4613
:1021A0000022634502D243F8042BFAE704F114023B
:1021B00008F1140102EB890301EB87070093009BF0
:1021C0000192934257D9B2F800B0BBF1000F23D06F
:1021D0008946AE464FF0000859F8044BBEF800A0FF
:1021E000A3B20BFB03A34FEA144ADEF800404344BA
:1021F0004FEA14480BFB0A8404EB1344F2469BB2EB
:1022000043EA04434F454FEA14484AF8043B01D9D6
:10221000D646E1E7CEF80480019BB3F802A0043271
:10222000BAF1000F21D02B682C4689464FF00008E8
:10223000B9F800E0B4F802B00AFB0EBEF044A346C1
:102240009BB243EA08434BF8043B59F8043BB4F80B
:1022500004E01B0C0AFB03E303EB18434F454FEA72
:10226000134801D95C46E3E763600435A7E75CF8EF
:10227000043D13B9013E002EF9DC066103B0BDE850
:10228000F08F00002DE9F843154612F003020646D0
:102290000F4607D0013A214C002354F82220FFF7C3
:1022A000CEFE0746AD1036D0746A3CB91020FFF759
:1022B00015FE7062446084600460C460D6F82480B7
:1022C000D8F808404CB940F271213046FFF73FFF83
:1022D0000023C8F80800044603604FF00008EB072D
:1022E0000AD5394622463046FFF73AFF394681463D
:1022F0003046FFF78DFE4F466D100CD0206808B1B8
:102300000446ECE7224621463046FFF729FF2060CD
:10231000C0F80080F4E73846BDE8F88308360008C6
:102320002DE9F0470C464FEA621A26694968A3680E
:10233000564407469146751CAB4202DA01315B00F8
:10234000FAE73846FFF72FFE0023804600F114011C
:102350001A46534503DA41F823200133F9E72AEA04
:10236000EA73206901EB830319F01F0904F11401DA
:1023700001EB800E14D0C9F1200C0022086800FA8D
:1023800009F002439A4643F8042B51F8042B8E457A
:1023900022FA0CF2F2D8CAF8042042B1B51C06E0C9
:1023A000043B51F8042B43F8042F8E45F9D8013D26
:1023B0003846C8F810502146FFF72AFE4046BDE8CF
:1023C000F08703690A699B1A10B511D19200143085
:1023D000143183180A4453F8044D52F8041D8C42FA
:1023E00002D007D3012010BD9842F4D3002010BDC5
:1023F000184610BD4FF0FF3010BD2DE9F8430C46D4
:102400000746114620461546FFF7DBFF061E08D19A
:1024100031463846FFF7C7FD012303614661BDE839
:10242000F883BCBF23462C4638466168BABF1D46B8
:1024300001260026FFF7B7FD2B69C660266905F166
:102440001409143404EB860709EB830800F1140522
:102450004FF0000C54F8043B59F8042B1CFA83F19C
:102460001FFA82FE120CCEEB0101C2EB134303EB09
:10247000214389B24FEA234CC84541EA0343A646AB
:1024800045F8043BE6D8BE450ED25EF8041B1CFAA4
:1024900081F2131403EB114392B242EA03424FEA72
:1024A000234C45F8042BEEE755F8043D0BB9013EEB
:1024B000FAE70661BDE8F8832DE9F34101211C46E6
:1024C0009046089E099DFFF76EFDC4F31302C4F306
:1024D0000A5407460CB142F480120192B8F1000F81
:1024E00019D002A840F8088DFFF704FE009B48B100
:1024F000019AC0F1200102FA01F10B43C2407B6155
:10250000019200E07B61019BBB61002B14BF0221A3
:102510000121396107E001A8FFF7ECFD019B7B6118
:1025200001213961203034B1A4F2334404443460D1
:10253000C0F1350009E007EB8103A0F232403060C2
:102540001869FFF7B7FDC0EB41102860384602B0AC
:10255000BDE8F08138B502FB01F4214600F056F8E1
:10256000054618B12246002100F039FA284638BD48
:1025700038B50546002946D051F8043C0C1F002B05
:10258000B8BFE41800F033FA1F4A1368114613B9B4
:102590006360146032E0A3420ED92268A01883421F
:1025A00004BF18685B68636004BF121822600C6087
:1025B00024E0A24203D813465A68002AF9D11868C9
:1025C0001918A1420BD121680144581882421960A0
:1025D00014D1106852685A60014419600EE002D9A3
:1025E0000C232B600AE021686018824204BF106847
:1025F0005268626004BF091821605C602846BDE82B
:10260000384000F0F5B938BD8802002070B5CD1C07
:1026100025F0030508350C2D38BF0C25002D064686
:1026200001DBA94202D90C23336046E000F0DFF958
:10263000234B1C681A462146A1B10B685B1B0ED4C4
:102640000B2B03D90B60CC18CD501EE08C420DBF74
:1026500063684B686360136018BF0C4615E00C4656
:102660004968E9E7174C23681BB9304600F07AF94E
:1026700020602946304600F075F9431C18D0C41C70
:1026800024F00304A0420DD12560304600F0B0F9DB
:1026900004F10B00231D20F00700C31A0ED05A428C
:1026A000E25070BD211A304600F05CF90130EBD1E8
:1026B0000C233360304600F09BF9002070BD00BF52
:1026C00088020020840200202DE9F0478E689E4297
:1026D00082460C46914698463ED88A8912F4906FFD
:1026E0003AD0256809696F1A6569022305EB45052B
:1026F00095FBF3F57B1C43449D4238BF1D465305B3
:102700000FD52946FFF782FF064698B13A46216960
:10271000FFF73EFCA38923F4906343F08003A38179
:1027200013E02A4600F065F9064670B92169504663
:10273000FFF71EFF0C23CAF80030A38943F04003C3
:10274000A3814FF0FF30BDE8F087266165613E440C
:10275000ED1B2660A5604646464528BF46463246E4
:102760004946206800F020F9A3689B1BA3602368FA
:102770001E4426600020BDE8F08700002DE9F04FE0
:102780009DB0804603938B891C060D4616460DD5D9
:102790000B695BB94021FFF739FF2860286118B940
:1027A0000C23C8F80030CDE040236B61002309936F
:1027B00020238DF82930DFF89CB130238DF82A30A2
:1027C00037463C4614F8013B1BB9B7EB060910D05D
:1027D00003E0252BF9D02746F3E74B46324629463E
:1027E0004046FFF771FF013000F0A780099B4B4482
:1027F00009933B78002B00F0A08000234FF0FF32BC
:1028000004930793059206938DF853301A9301268B
:10281000052221784E48FFF76BFB671C049B38B1FB
:102820004B4A801A06FA00F0184304903C46EFE742
:10283000D90644BF20228DF853201A0744BF2B220B
:102840008DF8532022782A2A03D0079A00210A20E3
:102850000BE0039A111D12680391002A10DA52420C
:1028600043F00200079204900BE0274601343B78C6
:10287000303B092B03D800FB02320121F5E701B1FF
:1028800007923B782E2B1ED17B782A2B0AD1039BF3
:102890001A1D1B680392002BB8BF4FF0FF3302379D
:1028A000059310E000230593781C19460A24074677
:1028B00001303A78303A092A03D804FB0121012378
:1028C000F5E703B10591032239782248FFF710FBA1
:1028D00040B14023CBEB000003FA00F0049B184307
:1028E0000490013739781C488DF8281006227E1C88
:1028F000FFF7FEFA88B1194B33B9039B073323F076
:1029000007030833039314E003AB00932A46144BE8
:1029100004A94046FEF786F807E003AB00932A4679
:102920000F4B04A94046FEF737FBB0F1FF3F82464C
:1029300003D0099B5344099342E7AB895B0601D45A
:10294000099801E04FF0FF301DB0BDE8F08F00BFE7
:10295000143600081A3600081E360008250A00083A
:10296000C926000838B5064C0023054608462360F2
:10297000FDF7BAFD431C02D1236803B12B6038BDBB
:102980008C02002082B001B901A93AB143B1137899
:102990000B601278101C18BF012003E0104601E004
:1029A0006FF0010002B07047884210B501EB0203DE
:1029B00001D8421E0BE09842FBD28118D21AD342B2
:1029C00004D013F8014D01F8014DF8E710BD99420C
:1029D00004D011F8014B02F8014FF8E710BD024492
:1029E0000346934202D003F8011BFAE77047704791
:1029F0007047F8B5074615460E4621B91146BDE8A1
:102A0000F840FFF703BE1AB9FFF7B2FD2846F8BD3C
:102A100000F022F885420ED929463846FFF7F6FD28
:102A2000044650B131462A46FFF7B2FA31463846DD
:102A3000FFF79EFD01E03046F8BD2046F8BD49B1E4
:102A4000FF2A85BF8A2303600A704FF0FF3098BFCA
:102A5000012070470846704751F8040C0028BEBF9B
:102A6000091851F8043CC0180438704781F000413F
:102A700002E000BF83F0004330B54FEA41044FEA63
:102A8000430594EA050F08BF90EA020F1FBF54EAFE
:102A9000000C55EA020C7FEA645C7FEA655C00F09A
:102AA000E2804FEA5454D4EB5555B8BF6D420CDD6B
:102AB0002C4480EA020281EA030382EA000083EAEE
:102AC000010180EA020281EA0303362D88BF30BD8E
:102AD00011F0004F4FEA01314FF4801C4CEA1131E4
:102AE00002D0404261EB410113F0004F4FEA033343
:102AF0004CEA133302D0524263EB430394EA050FCE
:102B000000F0A780A4F10104D5F1200E0DDB02FA3C
:102B10000EFC22FA05F2801841F1000103FA0EF2D0
:102B2000801843FA05F359410EE0A5F120050EF196
:102B3000200E012A03FA0EFC28BF4CF0020C43FAC7
:102B400005F3C01851EBE37101F0004507D54FF0D4
:102B5000000EDCF1000C7EEB00006EEB0101B1F524
:102B6000801F1BD3B1F5001F0CD349085FEA30006A
:102B70004FEA3C0C04F101044FEA445212F5800F75
:102B800080F09A80BCF1004F08BF5FEA500C50F112
:102B9000000041EB045141EA050130BD5FEA4C0CF5
:102BA000404141EB010111F4801FA4F10104E9D17E
:102BB00091F0000F04BF01460020B1FA81F308BF75
:102BC0002033A3F10B03B3F120020CDA0C3208DD41
:102BD00002F1140CC2F10C0201FA0CF021FA02F11C
:102BE0000CE002F11402D8BFC2F1200C01FA02F18C
:102BF00020FA0CFCDCBF41EA0C019040E41AA2BFB1
:102C000001EB0451294330BD6FEA04041F3C1CDA78
:102C10000C340EDC04F11404C4F1200220FA04F098
:102C200001FA02F340EA030021FA04F345EA030142
:102C300030BDC4F10C04C4F1200220FA02F001FA04
:102C400004F340EA0300294630BD21FA04F0294686
:102C500030BD94F0000F83F4801306BF81F480111F
:102C60000134013D4EE77FEA645C18BF7FEA655C92
:102C700029D094EA050F08BF90EA020F05D054EA64
:102C8000000C04BF1946104630BD91EA030F1EBF69
:102C90000021002030BD5FEA545C05D1400049416D
:102CA00028BF41F0004130BD14F580043CBF01F560
:102CB000801130BD01F0004545F0FE4141F4700146
:102CC0004FF0000030BD7FEA645C1ABF1946104621
:102CD0007FEA655C1CBF0B46024650EA013406BF22
:102CE00052EA033591EA030F41F4002130BD00BFE1
:102CF00090F0000F04BF0021704730B54FF480649E
:102D000004F132044FF000054FF0000150E700BF1E
:102D100090F0000F04BF0021704730B54FF480647D
:102D200004F1320410F0004548BF40424FF000016A
:102D30003EE700BF42004FEAE2014FEA31014FEAAD
:102D400002701FBF12F07F4393F07F4F81F06051FC
:102D5000704792F0000F14BF93F07F4F704730B56B
:102D60004FF4607401F0004521F0004120E700BFFE
:102D700050EA010208BF704730B54FF000050AE085
:102D800050EA010208BF704730B511F0004502D586
:102D9000404261EB41014FF4806404F132045FEA88
:102DA000915C3FF4DCAE4FF003025FEADC0C18BF2D
:102DB00003325FEADC0C18BF033202EBDC02C2F123
:102DC000200300FA03FC20FA02F001FA03FE40EAB5
:102DD0000E0021FA02F11444C1E600BF70B54FF0B5
:102DE000FF0C4CF4E06C1CEA11541DBF1CEA135597
:102DF00094EA0C0F95EA0C0F00F0DEF82C4481EAFF
:102E0000030621EA4C5123EA4C5350EA013518BF1E
:102E100052EA033541F4801143F4801338D0A0FB0B
:102E200002CE4FF00005E1FB02E506F00042E0FBB8
:102E300003E54FF00006E1FB03569CF0000F18BFBE
:102E40004EF0010EA4F1FF04B6F5007F64F5407466
:102E500004D25FEA4E0E6D4146EB060642EAC621F9
:102E600041EA55514FEAC52040EA5E504FEACE2E66
:102E7000B4F1FD0C88BFBCF5E06F1ED8BEF1004F69
:102E800008BF5FEA500E50F1000041EB045170BDE5
:102E900006F0004646EA010140EA020081EA030129
:102EA000B4EB5C04C2BFD4EB0C0541EA045170BD25
:102EB00041F480114FF0000E013C00F3AB8014F19F
:102EC000360FDEBF002001F0004170BDC4F10004E8
:102ED000203C35DA0C341BDC04F11404C4F1200569
:102EE00000FA05F320FA04F001FA05F240EA0200C4
:102EF00001F0004221F0004110EBD37021FA04F6FA
:102F000042EB06015EEA430E08BF20EAD37070BDB3
:102F1000C4F10C04C4F1200500FA04F320FA05F012
:102F200001FA04F240EA020001F0004110EBD37014
:102F300041F100015EEA430E08BF20EAD37070BD84
:102F4000C4F1200500FA05F24EEA020E20FA04F35D
:102F500001FA05F243EA020321FA04F001F000410C
:102F600021FA04F220EA020000EBD3705EEA430E7D
:102F700008BF20EAD37070BD94F0000F0FD101F0AC
:102F80000046400041EB010111F4801F08BF013CE5
:102F9000F7D041EA060195F0000F18BF704703F023
:102FA0000046520043EB030313F4801F08BF013DAA
:102FB000F7D043EA0603704794EA0C0F0CEA135566
:102FC00018BF95EA0C0F0CD050EA410618BF52EA20
:102FD0004306D1D181EA030101F000414FF0000026
:102FE00070BD50EA410606BF1046194652EA430634
:102FF00019D094EA0C0F02D150EA013613D195EAA8
:103000000C0F05D152EA03361CBF104619460AD1EF
:1030100081EA030101F0004141F0FE4141F47001F9
:103020004FF0000070BD41F0FE4141F4780170BDE9
:1030300070B54FF0FF0C4CF4E06C1CEA11541DBF4E
:103040001CEA135594EA0C0F95EA0C0F00F0A7F850
:10305000A4EB050481EA030E52EA03354FEA01317D
:1030600000F088804FEA03334FF0805545EA131390
:1030700043EA12634FEA022245EA111545EA106558
:103080004FEA00260EF000419D4208BF964244F1EF
:10309000FD0404F5407402D25B084FEA3202B61A0E
:1030A00065EB03055B084FEA32024FF480104FF4E2
:1030B000002CB6EB020E75EB030E22BFB61A754656
:1030C00040EA0C005B084FEA3202B6EB020E75EBE9
:1030D000030E22BFB61A754640EA5C005B084FEA51
:1030E0003202B6EB020E75EB030E22BFB61A75461E
:1030F00040EA9C005B084FEA3202B6EB020E75EB29
:10310000030E22BFB61A754640EADC0055EA060EE9
:1031100018D04FEA051545EA16754FEA06164FEA2C
:10312000C30343EA52734FEAC2025FEA1C1CC0D1D8
:1031300011F4801F0BD141EA00014FF000004FF065
:10314000004CB6E711F4801F04BF01430020B4F126
:10315000FD0C88BFBCF5E06F3FF6AFAEB5EB030CDE
:1031600004BFB6EB020C5FEA500C50F1000041EBDB
:10317000045170BD0EF0004E4EEA113114EB5C04A8
:10318000C2BFD4EB0C0541EA045170BD41F480117B
:103190004FF0000E013C90E645EA060E8DE60CEA83
:1031A000135594EA0C0F08BF95EA0C0F3FF43BAFA0
:1031B00094EA0C0F0AD150EA01347FF434AF95EA57
:1031C0000C0F7FF425AF104619462CE795EA0C0F3B
:1031D00006D152EA03353FF4FDAE1046194622E708
:1031E00050EA410618BF52EA43067FF4C5AE50EAE2
:1031F00041047FF40DAF52EA43057FF4EBAE12E7D2
:103200004FF0FF3C06E000BF4FF0010C02E000BFB2
:103210004FF0010C4DF804CD4FEA410C7FEA6C5C95
:103220004FEA430C18BF7FEA6C5C1BD001B050EA38
:10323000410C0CBF52EA430C91EA030F02BF90EA23
:10324000020F0020704710F1000F91EA030F58BFE2
:10325000994208BF90422CBFD8176FEAE37040F044
:10326000010070474FEA410C7FEA6C5C02D150EAE2
:10327000013C07D14FEA430C7FEA6C5CD6D152EA9D
:10328000033CD3D05DF8040B704700BF8446104662
:1032900062468C461946634600E000BF01B5FFF761
:1032A000B7FF002848BF10F1000F01BD4DF808ED31
:1032B000FFF7F4FF0CBF012000205DF808FB00BF02
:1032C0004DF808EDFFF7EAFF34BF012000205DF85C
:1032D00008FB00BF4DF808EDFFF7E0FF94BF0120A9
:1032E00000205DF808FB00BF4DF808EDFFF7CEFFAA
:1032F00094BF012000205DF808FB00BF4DF808EDE9
:10330000FFF7C4FF34BF012000205DF808FB00BFB9
:103310004FEA410C7FEA6C5C02D150EA013C0AD1D1
:103320004FEA430C7FEA6C5C02D152EA033C02D1C3
:103330004FF0000070474FF0010070474FEA410224
:1033400012F5001215D211D56FF47873B3EB6252F7
:1033500012D94FEAC12343F0004343EA505311F01E
:10336000004F23FA02F018BF404270474FF00000B0
:10337000704750EA013005D111F0004008BF6FF0EE
:10338000004070474FF00000704700BF5374616306
:103390006B206672616D653A0A0000002052302091
:1033A0003D2020253038580A0000000020523120EE
:1033B0003D2020253038580A0000000020523220DD
:1033C0003D2020253038580A0000000020523320CC
:1033D0003D2020253038580A0000000020523132AC
:1033E000203D20253038580A00000000204C522093
:1033F0003D2020253038580A00000000205043208E
:103400003D2020253038580A00000000205053523B
:10341000203D20253038580A000000004653522F26
:103420004641523A0A0000002043465352203D20B4
:1034300020253038580A00002048465352203D20AD
:1034400020253038580A00002044465352203D20A1
:1034500020253038580A00002041465352203D2094
:1034600020253038580A0000204D4D464152203D5D
:1034700020253038580A00002042464152203D2085
:1034800020253038580A00004D6973630A00000097
:10349000204C522F4558435F52455455524E3D20C3
:1034A000253038580A0000005B4861726446617537
:1034B0006C745D0A000000005B4275734661756CB8
:1034C000745D0A005B55736167654661756C745D78
:1034D0000A000000494E4600696E66004E414E00EB
:1034E0006E616E0030003031323334353637383962
:1034F0004142434445460030313233343536373863
:103500003961626364656600496E66696E697479E3
:10351000004E614E00000000000000000000F03F7F
:10352000000000000000244000000000000059409E
:103530000000000000408F40000000000088C340F1
:1035400000000000006AF8400000000080842E4166
:1035500000000000D01263410000000084D79741B2
:103560000000000065CDCD41000000205FA00242B8
:10357000000000E876483742000000A2941A6D422D
:10358000000040E59C30A2420000901EC4BCD64220
:1035900000003426F56B0C430080E03779C34143CB
:1035A00000A0D8855734764300C84E676DC1AB4341
:1035B000003D9160E458E143408CB5781DAF15445F
:1035C00050EFE2D6E41A4B4492D54D06CFF080443A
:1035D000F64AE1C7022DB544B49DD9794378EA444F
:1035E0000080E03779C34143176E05B5B5B89346FF
:1035F000F5F93FE9034F384D321D30F94877825ACB
:103600003CBF737FDD4F15750500000019000000F9
:103610007D000000232D302B2000686C4C00656677
:1036200067454647004300504F534958002E00005D
:103630002020202020202020202828282828202062
:10364000202020202020202020202020202020207A
:1036500088101010101010101010101010101010F2
:1036600004040404040404040404101010101010D2
:1036700010414141414141010101010101010101AB
:1036800001010101010101010101011010101010DF
:10369000104242424242420202020202020202027C
:1036A00002020202020202020202021010101020A4
:1036B000000000000000000000000000000000000A
:1036C00000000000000000000000000000000000FA
:1036D00000000000000000000000000000000000EA
:1036E00000000000000000000000000000000000DA
:1036F00000000000000000000000000000000000CA
:1037000000000000000000000000000000000000B9
:1037100000000000000000000000000000000000A9
:103720000000000000000000000000000000000099
:1037300078563412FC010020000000000000000058
:103740000000000001020304060708090024F40039
:103750000000000000000000000000000000000069
:103760000000000000000000000000000000000059
:103770000000000000000000000000000000000049
:103780000000000000000000000000000000000039
:103790000000000000000000000000000000000029
:1037A0000000000000000000000000000000000019
:1037B0002000002043000000000000000000000086
:1037C00000000000000000000000000000000000F9
:1037D00000000000430000000000000000000000A6
:1037E00000000000000000000000000000000000D9
:1037F0000000000043000000000000000000000086
:1038000000000000000000000000000000000000B8
:103810000000000043000000000000000000000065
:103820000000000000000000000000000000000098
:103830000000000043000000000000000000000045
:103840000000000000000000000000000000000078
:103850000000000043000000000000000000000025
:103860000000000000000000000000000000000058
:103870000000000043000000000000000000000005
:103880000000000000000000000000000000000038
:10389000000000003F2A0008852900080000000001
:1038A0002F3600082D360008193600081936000892
:1038B00019360008193600081936000819360008AC
:1038C000193600081936000819360008FFFFFFFFF7
:1038D000FFFFFFFFFFFFFFFFFFFF0000010041535D
:1038E0004349490000000000000000000000000003
:1038F0000000000000000000000000000000415334
:1039000043494900000000000000000000000000E2
:1039100000000000000000000000000000000000A7
:04392000325476980F
:04000005080001AD41
:00000001FF
